:020000040800F2
:1000000018070020ED010008510B000873080008D4
:100010004D0B00089F020008A51200080000000018
:10002000000000000000000000000000B90D000802
:10003000F704000800000000C50B0008FD0F0008D1
:10004000070200080702000807020008070200086C
:1000500007020008070200080D0500085D050008FA
:10006000070200080702000807020008070200084C
:10007000070200080702000807020008070200083C
:10008000A5020008C50200080702000807020008D0
:10009000070200080702000807020008070200081C
:1000A000070200080702000807020008070200080C
:1000B000070200087910000807020008070200087C
:1000C00007020008070200080702000807020008EC
:1000D0000702000807020008BD1000080702000818
:1000E00007020008070200080702000800000000DD
:1000F0000000000000000000000000000000000000
:1001000000000000000000000702000807020008CD
:10011000070200080702000807020008070200089B
:10012000070200080702000807020008070200088B
:10013000070200080702000807020008070200087B
:10014000070200080702000807020008070200086B
:1001500000F002F800F03AF80AA090E8000C82449F
:100160008344AAF10107DA4501D100F02FF8AFF27C
:10017000090EBAE80F0013F0010F18BFFB1A43F085
:1001800001031847A0110000C0110000103A24BF5D
:1001900078C878C1FAD8520724BF30C830C144BFEC
:1001A00004680C607047000000230024002500262E
:1001B000103A28BF78C1FBD8520728BF30C148BFCA
:1001C0000B6070471FB51FBD10B510BD00F031F8B2
:1001D0001146FFF7F7FF01F091F800F04FF803B474
:1001E000FFF7F2FF03BC00F053F800000948804716
:1001F00009480047FEE7FEE7FEE7FEE7FEE7FEE709
:10020000FEE7FEE7FEE7FEE704480549054A064B20
:10021000704700000D10000851010008180100206F
:1002200018070020180300201803002070477047AB
:100230007047754600F028F8AE46050069465346FB
:1002400020F00700854618B020B5FFF7DDFFBDE8B8
:1002500020404FF000064FF000074FF000084FF02D
:10026000000B21F00701AC46ACE8C009ACE8C009BE
:10027000ACE8C009ACE8C0098D4670470446AFF34E
:1002800000802046FFF7ABFF00487047B400002015
:1002900001491820ABBEFEE726000200704700BFF0
:1002A000FEE7000010B54FF4001000F0E7F8012859
:1002B00004D103490870400500F01CF810BD00008F
:1002C0001800002010B54FF0007000F0D7F801289A
:1002D0000AD10020054908704FF0007000F00AF8BC
:1002E0000021034800F014F810BD000016000020A3
:1002F0008000024000F0805111B10349086001E024
:1003000002494860704700000404024000000240B7
:1003100021B1026842F00102026004E002684FF677
:10032000FE731A400260704701684FF6FE7211407A
:1003300001600021016041608160C1604B498842D9
:1003400008D14A490839496841F00F01474A083A3B
:1003500051608AE045491431884208D1434908393F
:10036000496841F0F001414A083A51607DE03F4957
:100370002831884208D13D490839496841F4706103
:100380003A4A083A516070E038493C31884208D115
:1003900036490839496841F47041344A083A516095
:1003A00063E032495031884208D130490839496800
:1003B00041F470212D4A083A516056E02B496431CE
:1003C000884208D129490839496841F47001274A0F
:1003D000083A516049E025497831884208D12349DB
:1003E0000839496841F07061204A083A51603CE0A0
:1003F0001F49884206D1011F096841F00F01021F01
:10040000116032E01A491431884208D11849091F95
:10041000096841F0F001164A121F116025E01449E5
:100420002831884208D11249091F096841F47061D6
:100430000F4A121F116018E00D493C31884208D163
:100440000B49091F096841F47041094A121F1160E4
:100450000BE007495031884207D10549091F096857
:1004600041F47021024A121F1160704708000240D7
:10047000080402400146486880B2704701460020E7
:10048000002201F0805313B1054B1A6801E0054BBF
:100490001A6802EA01030BB1012000E00020704756
:1004A00000040240000002401AB103680B430360DD
:1004B00002E003688B430360704710B500220268B6
:1004C00047F6F0739A430C6A8B6823430C69234305
:1004D0004C6923438C692343CC6923434C6A2343EF
:1004E0008C6A23431A430260CB6843600B688360C5
:1004F0004B68C36010BD704710B54FF4E04102482F
:1005000000F0B5F910BD00000014014038B500201E
:10051000009002250024012000F04EF801281AD195
:1005200000BF0BE001210C4800F098F918B90A202F
:1005300000F0C0FE00E003E0601CC4B2052CF1DB5B
:1005400000BF052C04D101226946002000F0A0FC68
:10055000012000F02BF838BD0014014038B501200F
:10056000009003250024022000F026F801281AD16B
:1005700000BF0BE002210C4800F070F918B90A2006
:1005800000F098FE00E003E0601CC4B2052CF1DB33
:1005900000BF052C04D101226946002000F078FC40
:1005A000022000F003F838BD001401400149086042
:1005B0007047000014040140014600200022074B50
:1005C0001B6803EA0102054B14331B680B4013B18F
:1005D0000AB1012000E00020704700000004014043
:1005E000002123498279002A3AD00A46126803681A
:1005F0009A430B461A600A1D126803689A430B1D42
:100600001A60027911440A6803681A430A60184A9A
:100610000832126803689A43154B08331A601A1D92
:10062000126803689A43124B0C331A604279102AFD
:100630000ED11A1F126803681A430D4B08331A6053
:100640001A1D126803681A43094B0C331A600DE037
:100650000749427911440A6803681A430A6005E0B1
:10066000027911440A6803689A430A6070470000DF
:100670000004014030B500228B071C0F0F2303FA42
:1006800004F20B4B8C1053F824309343084C8D101C
:1006900044F8253023468C1053F824308C07240F5F
:1006A00000FA04F42343024C8D1044F8253030BD89
:1006B000080001402DE9F0410246002500260020F7
:1006C00000230024002791F803C00CF00F0591F8D7
:1006D00003C00CF0100CBCF1000F03D091F802C065
:1006E0004CEA050591F800C0BCF1000F31D0146848
:1006F00000202BE04FF0010C0CFA00F3B1F800C021
:100700000CEA03069E4220D183004FF00F0C0CFA36
:1007100003F7BC4305FA03FC4CEA040491F803C058
:10072000BCF1280F06D14FF0010C0CFA00FCC2F806
:1007300014C00AE091F803C0BCF1480F05D14FF096
:10074000010C0CFA00FCC2F810C0401C0828D1D3E0
:100750001460B1F800C0BCF1FF0F34DD5468002014
:100760002EE000F1080C4FF0010808FA0CF3B1F884
:1007700000C00CEA03069E4221D183004FF00F0C0B
:100780000CFA03F7BC4305FA03FC4CEA040491F8A5
:1007900003C0BCF1280F05D100F1080C08FA0CF8D1
:1007A000C2F8148091F803C0BCF1480F07D100F1E2
:1007B000080C4FF0010808FA0CF8C2F81080401C31
:1007C0000828CED35460BDE8F0810000F0B50A4699
:1007D000002300240021002500F00046B6F1004F60
:1007E00002D11D4EF16901E01B4E7168C0F3034553
:1007F00083B200F44016B6F5401F08D121F07061B5
:10080000154E766826F07066134F7E6012E000F495
:100810008016B6F5801F06D1032606FA05F4A1431B
:1008200041F0706106E0460D360103FA06F6B14369
:1008300041F0706122B1460D360103FA06F63143EC
:1008400000F00046B6F1004F02D1034EF16101E025
:10085000014E7160F0BD0000000001400246002022
:1008600093680B400BB1012000E00020704701614C
:10087000704700BFFEE710B500F0C0F800F062F866
:1008800000F004F800F08AF810BD000000B58BB04D
:100890000121084600F098F926480090264801906A
:1008A00000200290322003900020049080200590C8
:1008B00000200690079008904FF400500990002007
:1008C0000A9069461D48FFF7F8FD01211B48FFF714
:1008D0001FFD012202211948FFF7E6FD17481430D9
:1008E000FFF722FD13480090154801901020029058
:1008F0006420039000200490802005900020069042
:10090000079008904FF40050099000200A90694623
:100910000A481430FFF7D1FD0122022107481430A4
:10092000FFF7C2FD012105481430FFF7F1FC0BB0C1
:1009300000BD000004440040800000206C00024024
:100940001C00002008B526208DF8000003208DF83B
:1009500001008DF8020001208DF80300684600F0C8
:10096000F9F811208DF8000003208DF801008DF8B2
:10097000020001208DF80300684600F0EBF810201B
:100980008DF8000003208DF801008DF80200012091
:100990008DF80300684600F0DDF808BD1FB5684615
:1009A00000F074FC4FF4E13000900020ADF804003A
:1009B000ADF80600ADF808000C20ADF80A000020E4
:1009C000ADF80C0069460C4800F0F4FB012240F23F
:1009D0002441094800F0C9FB01224021064800F0EB
:1009E00091FB01228021044800F08CFB0121024888
:1009F00000F07CFB1FBD00000044004008B5012151
:100A0000202000F001F90121084600F0FDF8012145
:100A1000480400F0E9F801210820FFF7D7FE202064
:100A2000ADF8000018208DF8030003208DF80200B7
:100A300069460748FFF73EFE4020ADF8000004205D
:100A40008DF8030069460248FFF734FE08BD000038
:100A5000001401401CB50120009000208DF8040016
:100A60000C208DF8050001208DF806006846FFF780
:100A7000B7FD0220009000208DF804000C208DF8B6
:100A8000050001208DF806006846FFF7A9FD1CBD92
:100A900010B500F005F8FFF7DDFF00F01DF810BD00
:100AA00008B50121212000F0AFF80320ADF80000C7
:100AB0008DF8020048208DF8030069460548FFF7CD
:100AC000F9FD00210320FFF7D5FD01210320FFF7E9
:100AD000D1FD08BD0014014008B506208DF80000C6
:100AE00002208DF801008DF8020001208DF803002E
:100AF000684600F02FF807208DF8000002208DF8DE
:100B000001008DF8020001208DF80300684600F016
:100B100021F808BD10B5FFF7AEFE10BD08B50121E4
:100B2000202000F071F84FF4E040ADF80000032001
:100B30008DF8020010208DF8030069460248FFF787
:100B4000B9FDFFF7D9FC08BD0014014000BFFEE766
:100B50007047000070B5002100230F22C47804B351
:100B6000154C246804F4E064C4F5E064210AC1F182
:100B70000403CA40447804FA03F184781440214302
:100B800009010E4C0678A155047804F01F050124D4
:100B9000AC4005786D11AD0005F1E025C5F80041C8
:100BA00009E0047804F01F050124AC40044D0678E8
:100BB000761145F8264070BD0CED00E000E400E041
:100BC00080E100E07047000029B1064A5269024303
:100BD000044B5A6104E0034A52698243014B5A6153
:100BE000704700000010024029B1064AD269024352
:100BF000044BDA6104E0034AD2698243014BDA61B3
:100C0000704700000010024029B1064A9269024371
:100C1000044B9A6104E0034A92698243014B9A6152
:100C200070470000001002402DE9F0410021002231
:100C3000002500230026002400278C46DFF8608171
:100C4000D8F8048008F00C0121B1042907D0082944
:100C500059D109E0DFF84C81C0F8008058E0DFF896
:100C60004881C0F8008053E0DFF83481D8F8048070
:100C700008F47012DFF82881D8F8048008F4803571
:100C8000920C0D2A01D0921C00E0062235B9DFF843
:100C90001C8102FB08F8C0F8008033E0DFF8008117
:100CA000D8F82C8008F48036DFF8F480D8F82C804F
:100CB00008F00F0808F1010446B9DFF8EC80B8FB32
:100CC000F4F808FB02F8C0F800801BE0DFF8D080E1
:100CD000D8F82C80C8F3031808F10107DFF8C080AA
:100CE000D8F82C80C8F3032808F1020CDFF8B8808C
:100CF000B8FBF7F808FB0CF8B8FBF4F808FB02F8AF
:100D0000C0F8008004E0DFF89C80C0F8008000BFDD
:100D100000BFDFF88C80D8F8048008F0F0010909E2
:100D2000DFF88C8018F80130D0F8008028FA03F83A
:100D3000C0F80480DFF86880D8F8048008F4E06127
:100D4000090ADFF86C8018F80130D0F8048028FA1E
:100D500003F8C0F80880DFF84880D8F8048008F469
:100D60006051C90ADFF8488018F80130D0F80480D3
:100D700028FA03F8C0F80C80DFF82480D8F8048043
:100D800008F44041890BDFF82C8018F80130D0F8C6
:100D90000C80B8FBF3F8C0F81080BDE8F0810000CB
:100DA0000010024000127A0040787D0100093D00E9
:100DB0000000002010000020704700002DE9F041E5
:100DC00080460D4600272E480078012836D10021A4
:100DD0002C48FFF79DFA2B48FFF74CFBC6B22A4878
:100DE0000078801BC7B2002405E0E0192749085CA1
:100DF0000855601CC4B2B442F7DBA819642802DDB0
:100E0000C6F16400C5B2002406E018F80400A11978
:100E10001E4A5054601CC4B2AC42F6DB2F46A819DF
:100E200019490870A8191749091D086001201449BB
:100E3000087001211348FFF76BFA1DE000211148EB
:100E4000FFF766FA642D00DD6425002405E018F83C
:100E500004000E490855601CC4B2AC42F7DB2F46B3
:100E6000094805700748001D056001200449087005
:100E700001210448FFF74CFA3846BDE8F081000034
:100E80001600002080000240170000201C000020F7
:100E90002DE9F04104460D46164600272CB931468F
:100EA0002846FFF78BFF074600BF00BF3846BDE866
:100EB000F08110B500F002F810BD00000CB5002064
:100EC000019000903F48006840F480303D49086040
:100ED00000BF3C48006800F4003000900198401CBE
:100EE0000190009818B90198B0F5A06FF1D135487C
:100EF000006800F4003010B10120009001E00020F3
:100F00000090009801285CD12F48006840F0100044
:100F10002D4908600846006820F003000860084674
:100F2000006840F002000860264840682549486093
:100F30000846406848600846406840F48060486061
:100F40000846C06A214908401E49C8620846C06A6E
:100F50001F4908431B49C8620846006840F080608A
:100F6000086000BF1748006800F000600028F9D052
:100F70001448406820F47C101249486008464068D4
:100F800040F4E81048600846006840F0807008604F
:100F900000BF0C48006800F000700028F9D0094834
:100FA000406820F00300074948600846406840F068
:100FB0000200486000BF0348406800F00C000828A9
:100FC000F9D10CBD001002400020024000F0FEFFED
:100FD00044060100042808D14FF0E021096941F0DE
:100FE00004014FF0E022116107E04FF0E0210969B0
:100FF00021F004014FF0E02211617047024800889F
:10100000401C0149088070471400002010B51648A4
:10101000006840F001001449086008464068134920
:1010200008401149486008460068114908400E49C7
:1010300008600846006820F4802008600846406880
:1010400020F4FE0048600846006820F0A0500860C8
:101050004FF47F0088600020C862FFF72AFF4FF03E
:1010600000600449086010BD001002400000FFF05D
:10107000FFFFF6FE08ED00E010B50121044800F086
:101080000CF818B10121024800F004F810BD00006E
:1010900000040040CA430282704730B50246002077
:1010A00000230024158A05EA0103958905EA010455
:1010B00013B10CB1012000E0002030BD10B50024B8
:1010C00040F22441074800F026F848B1054800885E
:1010D000C4B20448001D0088C4B20120024908704F
:1010E00010BD0000004400401800002021B182899A
:1010F00042F40052828104E082894DF6FF731A4067
:10110000828170471AB1838A0B43838202E0838A0B
:101110008B438382704770B502460024002300256C
:10112000002040F66A16B14200D100BFC1F342155B
:1011300001F01F03012606FA03F3012D02D196895F
:10114000334006E0022D02D1168A334001E0968A30
:1011500033400C12012606FA04F41688344013B109
:101160000CB1012000E0002070BDF0B50346002462
:1011700000260025002040F66A17B94200D100BFC2
:101180001846C1F3421401F01F06012707FA06F5BD
:10119000012C01D10C3004E0022C01D1103000E010
:1011A00014301AB107682F43076002E00768AF43A5
:1011B0000760F0BD2DE9F04786B005460E460024D5
:1011C000A24600BFA1460027B08900B100BF2F464C
:1011D0002C8A4CF6FF700440F08804432C82AC89C2
:1011E0004EF6F3100440B0883189084371890843F2
:1011F0000443AC81AC8A4FF6FF400440B0890443FD
:10120000AC8201A8FFF710FD1F48874202D1DDF82C
:1012100010A001E0DDF80CA0A88900F4004040B166
:101220000AEBCA0000EB0A1031684900B0FBF1F884
:1012300007E00AEBCA0000EB0A1031688900B0FB36
:10124000F1F86420B8FBF0F004012009642101FBEF
:101250001089A88900F4004040B1322000EBC90099
:10126000B0FBF1F000F00700044308E0322000EB8F
:1012700009106421B0FBF1F000F00F0004432C8151
:1012800006B0BDE8F0870000003801404FF4165169
:10129000016000218180C18001810C2141810021F8
:1012A0008181704700BFFEE710B56FF00400FFF7C3
:1012B00091FE10BD014601EBC1024FF0E0235A61DF
:1012C00000229A611A46126942F001021A6100BFB7
:1012D0004FF0E022106900F001021AB100F48032F0
:1012E000002AF5D04FF0E022126922F001024FF0FF
:1012F000E0231A6100229A61704700001CB507A123
:1013000003C9CDE90001FFF7CFFFFFF703FCFFF7AB
:1013100005FCFFF7BDFB00BFFEE7000068656C6CD5
:101320006F00000044130008000000201C000000B3
:101330008C010008601300081C000020FC0600005F
:10134000A8010008000000000102030401020304D8
:10135000060708090204060800000000000000005B
:04000005080001519D
:00000001FF
